:020000041000EA
:1000000000B5324B212058609868022188439860DF
:10001000D860186158612E4B002199600221596106
:100020000121F02299502B49196001219960352056
:1000300000F044F80222904214D00621196600F024
:1000400034F8196E01211966002018661A6600F04E
:100050002CF8196E196E196E052000F02FF8012189
:100060000842F9D1002199601B49196000215960AB
:100070001A491B48016001219960EB211966A021F2
:10008000196600F012F800219960164914480160C1
:100090000121996001BC002800D000471248134993
:1000A000086003C880F30888084703B5996A0420EC
:1000B0000142FBD001200142F8D103BD02B5186610
:1000C0001866FFF7F2FF186E186E02BD00000240BE
:1000D000000000180000070000035F00212200005C
:1000E000F4000018222000A00001001008ED00E03C
:1000F00000000000000000000000000074B24E7A12
:1001000000200420F7010010C3010010C5010010F9
:10011000C1010010C1010010C1010010C101001097
:10012000C1010010C1010010C1010010C701001081
:10013000C1010010C1010010C9010010CB01001065
:10014000CD010010CD010010CD010010CD01001037
:10015000CD010010CD010010CD010010CD01001027
:10016000CD010010CD010010CD010010CD01001017
:10017000CD010010CD010010CD010010CD01001007
:10018000CD010010CD010010CD010010CD010010F7
:10019000CD010010CD010010CD010010CD010010E7
:1001A000CD010010CD010010CD010010CD010010D7
:1001B000CD010010CD010010CD010010CD010010C7
:1001C00000BE00BE00BE00BE00BE00BE00F04BF888
:1001D000103800BEF2EB8871002200101C220010C3
:1001E0003402001090A31AE700202149086006C8D5
:1001F00081F3088810471F48006800282FD10DA4FC
:100200000ECC002902D000F012F8F9E71A491B4A77
:10021000002000E001C19142FCD1194988471949E9
:1002200088471949884700BEFDE701C901C29A42C3
:10023000FBD370471C220010C0000020D003002018
:100240002C25001000000420000004202C250010A4
:1002500000100420001004200000000070470B482C
:1002600001F0C6FC0047EFF30580C0B27047000004
:1002700008ED00E0000000D0D0030020D8080020E6
:100280009D130010390400109914001057560000F7
:1002900006005250ABB36053B42100100600525018
:1002A000861C0302C4210010060052505422A29D55
:1002B000CC21001005005250DE65F4682C2500109A
:1002C000F8B5C04610B5064C2378002B07D1054B76
:1002D000002B02D0044800E000BF0123237010BDB2
:1002E000D00400200000000058210010044B10B57D
:1002F000002B03D00349044800E000BF10BDC046F6
:1003000000000000D404002058210010024A1368A5
:10031000013313607047C04638060020024A136854
:10032000013313607047C0463C060020D221F0B56F
:10033000324F8BB03C684900200001F087FCD2218D
:100340002F4E030135682F4A1B1A9B00136049008A
:10035000280001F07BFC03012B4A1B1A9B00136051
:100360002A4A2B49136815600022E41A294B3A6087
:100370001C60294B32601B68EB1A0B609C4211D049
:100380001EDDE41A254A264B1C601368E31813602F
:10039000FA2B26DC23490A68121B0A6022490A60EC
:1003A000224A136000F084FB04AB02930023019304
:1003B0001F4B204A0093002300F07EFB0BB0F0BDE2
:1003C000181B174B1860174B1A6882181A60FA2A04
:1003D0000EDDFA221A60114B1E3A1A60DC231E321F
:1003E000DCE7FA231360DC220E4B1A60FA23D5E710
:1003F0000A490B681B1A0B60D0E7C046380600207C
:100400003C060020EC040020F0040020A40600209C
:100410008806002084060020A8060020B0060020E0
:10042000FC040020AC060020100300201403002070
:100430002D03001040420F0010B504208AB0D024D4
:1004400000F010F9102324066362072000F00AF977
:1004500080230320636200F005F90823062063620D
:1004600000F000F9402304216362022000F0A6F8A6
:100470000421052000F0A2F8FA22224B13205A6230
:100480009A63214B1A68214B1B8853401B04204A56
:100490001B0C13601F4B1A681F4B1B681B04534037
:1004A0001B0C1E4A1B0413601D4B1A680123190004
:1004B00091431C4A11601C4A0821126893431B4A4D
:1004C000136001221A4B00F091F808210122194B08
:1004D000102000F08BF800F0EBFA04AB029300233D
:1004E0000193154B154A0093002300F0E5FA230011
:1004F00008201024802140225C61986199615A6132
:10050000FAE7C04600000540200005401003002027
:10051000201005403400054014030020341005402D
:10052000140005401410054028000540281005401F
:100530000D0300101D0300102D03001040420F009A
:10054000D0231B06F0B51E68C646731E9E4173423B
:1005500030261E40164B00249C46164B07270F25BD
:10056000984600B56644E00803003A0008339B0053
:100570009B5922409200D340290019401D4210D0BF
:100580000B0093401A003C300B4B8000C250D0232C
:1005900042461B061B689B009B58002B01D0200085
:1005A000984701341E2CDED104BC9046F0BDC046F5
:1005B00000410140F404002000400140094A83004A
:1005C00094464022634410B51C68C0006240C024B9
:1005D00014408022520113431C60034B9C4660442C
:1005E000416010BD04C001400040014070B50600EC
:1005F000D02000060468F508601E84413020644263
:100600000440144884460720304080008140280080
:10061000114E3C3064448000AD0081516419002AC1
:1006200012D08022920114432160D0221206126857
:100630000A49920053500D20094901F0C5F80121E3
:100640000D2001F0A7F870BDC02292011443216073
:10065000EBE7C0460041014000400140F4040020A7
:10066000410500100123D02283401206936293615A
:10067000094A83009446402263441968C0004A40F6
:10068000C02111408022520113431960034B9C4644
:10069000052360444360704704C0014000400140AE
:1006A000F8B5EFF3108772B60E4E3368002BFCD00E
:1006B000BFF35F8FCB08C4180725A446C45C012391
:1006C0000D40AB4018002040234208D1624623432E
:1006D0001370BFF35F8F306087F31088F8BD100090
:1006E00000F0DCFE2C0100D0024B18688007C00F20
:1006F0007047C04600C006400021044B044ABFF3C7
:100700005F8F02C39342FAD17047C046000100D008
:10071000800100D0044A1078431CDBB2172B00D9AB
:10072000102313707047C0461803002083680B48DD
:1007300010B5844661446244090112019A1859189F
:1007400054684B6801209C4201D802D00020C0B2FE
:1007500010BD12680B689A42F9D8F7E7FFFFFF0F48
:1007600010B508000B690C009847002802D02068DB
:10077000616810BDE06000210020FAE7F8B5574637
:1007800045464E46DE46E0B599460CAB19780DABB2
:100790001B78050090469A460768002912D1BE7B57
:1007A000002E45D074003B68A419033C1B195A78ED
:1007B0003100BA73002A00D1FA7300229A705A707D
:1007C0001A7003E00E004C006418033C2C4B00220E
:1007D0009C46AB6861449C464346090161440B60FA
:1007E0004B464B600A9B8B600B9BCB603B681B1995
:1007F0009A705A701A707B7B9B46002B2CD032006B
:100800005946B8687B6898473A68002817D05B4615
:1008100058465B005B441419033BA070D118D35CAD
:10082000002B00D063705B460E707B73B34514D011
:1008300030003CBC90469946A246AB46F8BD5B46AC
:100840005B005B44033BD3189E701119125D002AB4
:1008500000D05A705B460B707E7342464B46287D33
:1008600000F0F4FA041E06D05346002B03D13100E9
:10087000286800F055FD0E9B002BD9D01C70D7E7DF
:10088000FFFFFF0FF0B5DE464E46574645460023B4
:10089000E0B58DB00A936B4B8200D3580B9099460C
:1008A00000239B464B46079300F080FA079C060006
:1008B0000F006268EFF3108572B61368002BFCD04E
:1008C00022000794BFF35F8F2468637B9946002B57
:1008D00067D092685C4B90464B441B01984443465A
:1008E0001A685B6810001900801BB94100295FDDA0
:1008F0000B9800F0ABFA00230026984600279A4692
:10090000079C6368BFF35F8F5A461A6085F31088AF
:100910005346002B08D10028C6D10DB03CBC9046F0
:100920009946A246AB46F0BD0A9B414618024B468B
:100930001843D047089009916268EFF3108572B6AA
:100940001368002BFCD00794BFF35F8F0899099AB6
:10095000002A48DB114303D0079B1B69002B5DD1A4
:10096000079B1B68DA7B002A07D051008A18196898
:100970008C4649466244033A51704A46DA734B4604
:10098000079A013BD168CA5C0132CA545B46079A98
:1009900013615368BFF35F8F5A461A6085F310885E
:1009A00082E700230026984600279A460020A7E702
:1009B000002901D100289BD10021200000F012FC69
:1009C00043461E685F689B68079A9A464346DB6801
:1009D0009846D3684B44013B1B780A931B020343A0
:1009E000136100208CE72369002BB9D033003C0051
:1009F0005B1A94411A002300A74219D89F421BD0CA
:100A000059460491012103914946029141460191C1
:100A1000514607980091FFF7B1FEB7E700F0C6F91D
:100A2000089A099B06000F0092197B419942E5D96B
:100A300001225242D317E3E79642E1D90122524202
:100A4000D317DDE794060020FFFFFF0F10B5124C0F
:100A50006368002B04D00A21104800F089FA10BD09
:100A600023000F4A1021206800F0DAFA032000F07A
:100A700091F9032000F05CFA03200A4900F0A0F984
:100A8000FFF748FE084B9C46032360442375074B41
:100A900080006060DC60DEE71C030020BC060020F4
:100AA0002D07001085080010400000349406002037
:100AB000004870471C030020F0B54E464546DE4610
:100AC0005746E0B583B00E99804689461100194318
:100AD00000D1E7E0D81706005640340006005E401B
:100AE00001003500241A8D41494640460A6088605D
:100AF0000D9A0C984B604A61086100F057F90200AA
:100B00000B00A4185D412000290000900191AB4228
:100B100000D9D5E000D1CFE000239A4643465B6878
:100B2000EFF3108B72B61A68002AFCD0BFF35F8F08
:100B300043461D68AC7B002C59D066002B683619E3
:100B4000033E9B195A78AA73002A00D1EA73002049
:100B5000424698705870187092685E4B944600999F
:100B6000019AE3181B01634419605A605A4A9A605B
:100B70004A46DA602B689B199870587018706F7B22
:100B8000002F00D17DE022003900A8686B689847EB
:100B90002A6800286BD07B00DB199619033BB770DD
:100BA000D118D35C002B00D084E00C706F73BC4272
:100BB00068D043464246DB6852681B19013B1B78EC
:100BC000BFF35F8F002111608BF310885246002A1B
:100BD00018D11B021C4301239A464B465046DC6049
:100BE00003B03CBC90469946A246AB46F0BD5B685C
:100BF000BFF35F8F1C608BF31088002301249A469B
:100C00006442EAE74846036998478246002801D1D2
:100C10000024E2E74B461C685D6823002B4355D057
:100C2000002D0EDA009A019B10001900001BA9414B
:100C300004000D008B420FD8AB4211D000940195F7
:100C40006CE700F0B3F806000F00A4197D41A9423B
:100C500002D8F3D1A042F1D901246442E517EDE7AF
:100C6000009BA342EAD901246442E517E6E77B0032
:100C7000DB19033BD3189C709119925D002A16D1A1
:100C80000F706C734346187D009A019B00F0DEF8EC
:100C90008246002800D18CE743462100186800F006
:100CA0003FFB86E701240025012200231CE75A7040
:100CB0000F70E6E7737078E700998A4200D82BE757
:100CC00001235B42DC170093019425E700230024F5
:100CD0009A4682E7FFFFFF0F61070010F0B5D64686
:100CE0004F464646C0B5EFF305833F221340180038
:100CF0001038EFF3108C72B6204D2A68002AFCD011
:100D0000BFF35F8F0122110081401D4C8846616353
:100D10001C4917000E788A463100C1400F400A4234
:100D200015D019498200646A51588C4219D3174B67
:100D3000D25843469E4353461E70BFF35F8F002335
:100D40002B608CF31088002A06D0904704E0BFF394
:100D50005F8F2F608CF310881CBC90469946A2468A
:100D6000F0BD0B4A9B00904643441A681A60BFF3DB
:100D70005F8F00232B608CF31088EDE7280100D0F3
:100D800000400540D3060020C006002000050020DA
:100D9000D03F054010B50100024A0348FFF780FC30
:100DA00010BDC04658210010D1060020034B596ADF
:100DB0000A00986A596A8A42FAD170470040054091
:100DC00070B504000D00EFF3108672B61A4A13686E
:100DD000002BFCD0BFF35F8F002D1BD0200000F054
:100DE000EBFC164981420AD0200000F0EDFC012105
:100DF000200000F0CFFC0123A340114A1360114BE7
:100E0000A400E550BFF35F8F00220B4B1A6086F3FE
:100E1000108870BD0B4BA200D5500122A2400A4998
:100E200020000B7893430B70044900F0F7FC00217D
:100E3000200000F0AFFCE5E7280100D0DD0C001039
:100E40003860054000050020D3060020F0B54F466D
:100E5000D6464646C0B50700304C616A0D00A66A0A
:100E6000616AA942FAD18B4208D805D001201CBC86
:100E700090469946A246F0BDB242F7D9EFF31089E9
:100E800072B6274801680029FCD0BFF35F8F0125A7
:100E90002449BD408C460978204C0E002E438846DC
:100EA000F1B28A46614650460870391D1E488900D5
:100EB00065630A51B9000B50216A0020294219D0FC
:100EC000616A0800A66A616A8142FAD18B4219D828
:100ED00001D1B24216D8C2451DD0104B1F201D6251
:100EE0005D6301230740BB40104A1E381360634610
:100EF00042461A70BFF35F8F0022094B1A6089F3D4
:100F00001088B4E70020BFF35F8F0022044B1A6003
:100F100089F31088ABE70120ECE7C04600400540AC
:100F2000280100D0D3060020C006002080E200E0A7
:100F300010B5EFF3108472B60A490B68002BFCD091
:100F4000BFF35F8F01238340074A0848136202788A
:100F50009A430270BFF35F8F00230B6084F3108805
:100F600010BDC046280100D000400540D306002037
:100F7000024B9C4661448900016070474000003488
:100F800010B50400FFF7C6FB01002000FFF7F0FFDB
:100F9000FF23A380BFF35F8F10BDC04610B50400D0
:100FA000FFF7B8FB01002000FFF7E2FF01235B42DF
:100FB000A380BFF35F8F10BD70B505000E00140055
:100FC000002924D0002A24D080686B6898472968BB
:100FD00000280ED063001B197200033B9219CB1836
:100FE000033A9E7088188A5C002A14D1047030007D
:100FF0000EE073009B196200033B1219CB18033AF1
:101000009C7088188A5C002A00D05A7006702000F4
:1010100070BD0800FCE75A7004703000F8E7C04665
:1010200030B583600023CCB2437301330473426054
:101030008373C4730D000068012C06D9421C013370
:10104000DBB2137003329C42F9D1FF2129404B00DF
:101050005918002340180338437030BDF8B5CE4608
:10106000474606000C0080B5002907D04D000368F4
:101070006D18033D5A195778002F04D120000CBC7D
:1010800090469946F8BD7900C9190339884643440A
:101090005978894600215970517073683A002100CF
:1010A000806898473368002814D042469A18947094
:1010B00059195B5D002B00D053700F702700494613
:1010C0003000FFF7CBFF390002003000FFF774FF5C
:1010D0000400D3E7424641465D19AF709A185B5C45
:1010E000002B00D06B701470E9E7C046F0B557468E
:1010F0004546DE464E46E0B50D006B0001685B19C3
:10110000DF1E0400C85D83B00192CA1900284CD0CC
:1011100043001B18033BCB185E78B446002E16D153
:10112000019E002E3ED0E67B002E04D073009B195A
:10113000CB18033B5D70E57300282FD1002353705B
:1011400003B03CBC90469946A246AB46F0BD720047
:101150006244033A89184A78904600224A709146C0
:101160005A70010032002000FFF726FF43468246F6
:10117000002B07D05B0021684344033BCB185A780F
:10118000002A16D1424651462000FFF715FF21687C
:10119000019BCA19002BC6D10028CFD043001B18D1
:1011A000033BCB1800219970C8E7019B002BBAD1F3
:1011B000C4E7500080180338091848788346484629
:1011C0004870587041462000FFF7F6FE59468046A9
:1011D0002000FFF743FF414602002000FFF7ECFE2E
:1011E0008046CFE7F0B54E464546DE465746E0B569
:1011F000467B040075000068AD19033D83B0019182
:10120000415D421900294ED04B005B18033BC318C7
:101210005F78BC46002F18D1019D002D40D0E57BA2
:10122000002D04D06B005B19C318033B5E70E6739E
:10123000002931D1002330005370617303B03CBCEE
:1012400090469946A246AB46F0BD7A006244033A06
:101250008018427893460022427091465A702000CE
:101260003A00FFF7A9FE5B468046002B07D05B00E3
:1012700021685B44033BCB185A78002A17D15A46A1
:1012800041462000FFF798FE019B010020684219AB
:10129000002BC4D10029CDD04B005B18033BC318F1
:1012A00000209870C6E7019B002BB8D1C2E7500020
:1012B00080180338091848788246484648705870A4
:1012C00059462000FFF778FE53468346002B07D08F
:1012D0005B0021685344033BCB185A78002A06D19F
:1012E000594652462000FFF767FE8346C7E7500085
:1012F00080180338091848464F784870587051468E
:101300002000FFF759FE390081462000FFF7A6FEB6
:10131000494602002000FFF74FFE8246E0E7C04644
:1013200070B5040000292CD0437B8B422ED0056879
:1013300048004018033828188278002A21D053002A
:101340009B18033BEA5CEE188A4202D11BE0002A9C
:1013500008D053009B18033BEB185A788A42F6D109
:1013600042785A7000230122837043702000FFF7F7
:10137000BDFE617B02002000FFF71EFE60730120AE
:1013800000E0002070BD43783370EBE701221900C4
:10139000FFF7ACFE60730120F4E7C0462F4B304AE4
:1013A00070B51A602F4A304B30491A6010008B68B4
:1013B0009843FBD12E4C2F4B9C4209D2013B1D1B65
:1013C000AD080135AD002D1908CC9847AC42FBD1D2
:1013D00000F082F8284A244B1A60244A9368DB0103
:1013E0008033FBD14022254B254C9A675A671A67F8
:1013F000DA66244B9C4214D2013B1D1BED080135DB
:10140000ED002D1904E00834FFF7C8FDAC4208D008
:1014100063792000002BF6D10834FFF7B1FDAC4210
:10142000F6D1194C194DA168C022280000F01EFD0C
:10143000A560FFF761F900F029FBFFF707FB144CEB
:10144000144B9C4209D2013B1D1BAD080135AD0078
:101450002D1908CC9847A542FBD170BD00E0004093
:10146000BFCDFBFEFE7F3C0000F0004000C000400E
:10147000B8030020C8030020FFFFFF0100F0014077
:10148000B0030020B803002000ED00E000000020C1
:10149000C8030020D003002000BEFDE70FB400B554
:1014A000084883B000F0B8FD049B002B07D005A9C5
:1014B0001800019100F07CFB034800F0ADFD00BE78
:1014C000FDE7C0467C2100108C21001010B50148BA
:1014D000FFF7E4FF9021001030B50C2083B000F03E
:1014E00043FBFFF701F900280ED0944B944A1A6091
:1014F0005A609A60DA601A615A619A61DA611A6216
:10150000904A5A6203B030BD8F4CA06700F034FBA4
:1015100001228E4B1A60636C012BFCD103228C4B91
:101520001A60894A936B012BFCD102240121894A5C
:1015300089480533009400F0C5FA0523874A012144
:101540008748009400F0BEFA864B5A68FF2A02D8FA
:10155000802252005A608022784C7D4B2169120112
:10156000804D1A60002905D0606900F097FB0130BA
:101570000138FDD1E0217B4B02201A681140802206
:1015800052012A431160196848400321014011604B
:1015900004219A681142FCD08022802192012A43C2
:1015A00009011160802252005A606F4B23616F4B1A
:1015B0005968FF2900D85A6003226C48634B012107
:1015C0001A60020093681942FCD0E02513681D40A0
:1015D00080235B0103431D6012684A4003211140D0
:1015E00019600221614A93681942FCD0802380214E
:1015F0009B0103430901196080215D4B4900516043
:1016000063615C4B5A68FF2A00D8596080225A4BAC
:10161000E1691201574D1A60002905D0606900F098
:101620003DFB01300138FDD1E02252490B681A40E0
:1016300080235B012B431A60802380229B012B4374
:1016400012011A6080223E4B52004A60E3614B4B0C
:101650005968FF2900D85A608022494B216A12013B
:10166000464D1A60002905D0606900F017FB013073
:101670000138FDD1E02241490B681A4080235B010B
:101680002B431A60802380229B012B4312011A6096
:10169000802380225B004B60294BD2022362394BAE
:1016A0005968914200D25A608022374B616A120118
:1016B000344D1A60002905D0606900F0EFFA01305E
:1016C0000138FDD1E0222F490B681A4080235B01CD
:1016D0002B431A60802380229B012B4312011A6046
:1016E0008023DB024B60174B6362284B5A68FF2A4A
:1016F00002D8802252005A608022254BA169120133
:10170000224D1A60002905D0606900F0C7FA013047
:101710000138FDD1E0221D490B681A4080235B018E
:101720002B431A60802380229B012B4312011A60F5
:1017300080235B004B600E4BA361E3E610060020A4
:10174000006CDC021BB70000008000403CB0004091
:1017500030B00040002F68590080024000389C1CC7
:1017600000C0024030800040001BB7003C800040B9
:10177000405973075480004054B0004060800040DE
:1017800060B000406C8000406CB000404880004079
:1017900048B0004001238340002904D0034A13606D
:1017A000034A13607047034A1360FBE780E200E0DE
:1017B00000E100E080E100E0024B10309B68800017
:1017C000C058704700ED00E070B50D00EFF31086D3
:1017D00072B60F4A1368002BFCD0BFF35F8F0D4B1E
:1017E00010309B6884001B590B4A934203D09D42E2
:1017F00001D0FFF76BFE074B9B681D51BFF35F8F56
:10180000BFF35F8F0022024B1A6086F3108870BD11
:10181000240100D000ED00E0CD010010F0B5DE465F
:1018200057464E464546E0B50C0083B0EFF3108AAC
:1018300072B65B4A1368002BFCD0BFF35F8F102297
:10184000914681444A46574B96009B689D59564B9A
:1018500098469D4205D0A54216D0544FEB1B2F2B26
:1018600014D9504B9B689D51BFF35F8FBFF35F8FBF
:1018700000224B4B1A608AF3108803B03CBC9046A0
:101880009946A246AB46F0BD1D00EAE7012383401E
:101890009B465A46464B1B681A4000925A46454B97
:1018A0001A60BFF35F8FFEF7DEFC0190002803D0C3
:1018B000814501D0FFF70AFE01232A009A43130055
:1018C000DB1B5B4142495943090D93689C4208D197
:1018D0005BE043001B189B00FB189868A04211D0E6
:1018E0001A00062010560028F3DA009B002B05D0C2
:1018F0005A46314B1A602E4B1A60B2E75A462D4BAE
:101900001A60AEE706201856002822DB42001118A4
:1019100089007C188846A1689960E179D97106210F
:1019200061569971A1797F291FD8A488F91A640595
:10193000241544440919E0240905490D24022143D2
:10194000998012181D4B9200BF181A781870BA713E
:10195000CBE7019800280BD1FF3090711848908098
:10196000164A107811709871BFE7BD210902E7E7A8
:10197000144A1549D21A083A5002400D0143998081
:10198000124952080A43DA80AFE7062010561300C6
:101990000028BBDA019A002AEAD14546E0E7C046B2
:1019A000240100D000ED00E0CD0100104403002030
:1019B00000E100E080E100E080E200E0D2060020EB
:1019C00000BDFFFF7E03002000F0FFFF00F8FFFFD7
:1019D000AAAA0000F8B5012504000543FEF743FC60
:1019E0000200EFF3108672B621490B68002BFCD081
:1019F000BFF35F8F1F492000401A4041224B4343F1
:101A00001B0D1D48920087685BB2BF58AF421CD0C7
:101A100006228A569A421CD012228A569A4222D014
:101A20001E228A569A4220D02A228A5603209A429F
:101A300010D0124A11781370A171BFF35F8F00228A
:101A40000B4B1A6086F31088F8BD81680C488850EB
:101A5000EFE700204200121892008918FF228A71D5
:101A6000084A8A80E5E70120F4E70220F2E7C04651
:101A7000240100D04403002000ED00E0D206002045
:101A8000CD01001000BDFFFFAAAA0000F0B50022A2
:101A90000324FF27802620003D00094B11009C46AF
:101AA0001040C0008540A14361440B680132AB4344
:101AB000350085402B430B60202AECD1F0BDC04699
:101AC00000E400E0F8B504000C2017001D000E0033
:101AD00000F0E4F84101091A8B01591AC9000918EC
:101AE0008901380000F0DAF8069A2B041203134338
:101AF0002268002A21DB184AA21851424A4180215B
:101B000049018C4652420A40144962440A60144911
:101B10000A60144917008D68AF43FBD1C021221D14
:101B20008901114321222660A0600A602268002AF0
:101B3000FCDAE36008230B60F8BD3F2221680A400D
:101B4000B242D8D1A2681205120D8242D3D1E26806
:101B5000002BD0D1F0E7C0460040FDBF00E00040C0
:101B600000F0004000C000408023024A9B00034375
:101B7000D362704700800540AA23064A1B01136008
:101B80002F230549D360054B19605368002BFCDAFD
:101B90007047C0460040024000B0FA0000600240BA
:101BA00010B5002800D110BD00F028FAFBE7C046B0
:101BB00010B5094A0300146884B0002C08D0012233
:101BC00000910648524203A9A047012004B010BD6D
:101BD00000F022FA0020F9E790060020A11B001077
:101BE00001480421014B184790030020111C0010EC
:101BF000142310B50100188804331B88984710BDC2
:101C0000162310B50100188802331B88984710BDB1
:101C1000F0B5C64600B5002916D0142304000125EE
:101C200098461827890046184346216818883B883B
:101C3000984701C4431E984140420540A642F3D153
:101C4000280004BC9046F0BD0125F9E7124A936FC5
:101C50009B0815D29066D166002905D0FFE7FFE703
:101C6000FFE7516F106F704704B580210906C21756
:101C70005140002800D0C84300F056FA002104BDAE
:101C8000F0B5146E556E576F166FFFF7E3FF1466CD
:101C9000556657671667F0BD000000D0114A936F74
:101CA0009B0813D210665166002905D0FFE7FFE7B5
:101CB000FFE7516F106F704704B5002801D0002076
:101CC000C04300F031FA002104BDC046F0B5146EE7
:101CD000556E576F166FFFF7E5FF14665566576729
:101CE0001667F0BD000000D0132370B51D78012DDC
:101CF00010D00BDD2448FFF783FF244C0100802225
:101D0000200000F0B3F8022D01D070BD1F4C204A16
:101D1000A264FAE72E001D4C1D4AA3085B421E4038
:101D20001D422FD0330022602020B1006118801B9B
:101D30000A604A608A60CA600A614A618A61CA614F
:101D40000A624A628A62CA620A634A638A63CA632F
:101D50000A644A648A64CA640A654A658A65CA650F
:101D60000A664A668A66CA660A674A674008102891
:101D700003D18A67CA67A264C7E71E339B00E2509B
:101D8000A264C2E70023CFE753440000D40600203A
:101D9000951D001007B5604601880A0A0230DF2A47
:101DA000FAD1C9B2820804D30288408800041043E3
:101DB00000E00068014A5050039007BDD40600209F
:101DC000132310B512481C78FFF71AFF0100012CED
:101DD0000AD003DD80220F4800F048F80E48FFF7D4
:101DE00007FF0E4B186010BD0A4C5422200000F073
:101DF0003DF80B4B6365A365E36523666366A366E5
:101E0000E36623676367A367E3672362E361E5E74C
:101E100053460000D40700204C330000D4080020B3
:101E2000251E001007B5604601880A0A0230DF2A25
:101E3000FAD1C9B2820804D3028840880004104352
:101E400000E00068014A5050039007BDD40700200D
:101E500001480421014B1847A0030020111C001069
:101E6000014B1B6818470000A0030020014B5B6872
:101E700018470000A0030020F8B54746CE460D00E5
:101E800080B516000700002A20DD4B1E98461A4B2D
:101E9000002400209946002C2BD043461B5D0D3BAF
:101EA0005A425341DBB22A5D0A2A13D00134A642BA
:101EB000F1DC864203DD311A3B6828189847AD19DA
:101EC000013D2B780D3B5A4253413B740CBC90466C
:101ED0009946F8BD002BE9D1A04203DA211A3B68EC
:101EE00028189847484602213B680134984720004B
:101EF000DDE73B7CD7E7C046FC210010F0B5574634
:101F00004546DE464E46D023E0B51B061C68374BDF
:101F100083B007000D00180001A990469A4600F012
:101F20000BF98146002808D1019B64B29C4204D081
:101F3000504600F009F9012399466B1C03D1380083
:101F400000F0B0F805002A4B1C68002C2FD00A23A3
:101F5000284E9B4602E0E468002C28D02268002A24
:101F6000F9D03368002B01D0A342F4D1637C002B5D
:101F70002AD02A0039002000FFF77EFF4346002BBD
:101F8000E9D06B465A461A71637C002B20D0237C23
:101F9000002B26D00121236801A898476B461B79A6
:101FA0000D3B5A4253412374E468002CD6D14B4672
:101FB000002B12D1681E8541E8B203B03CBC9046AC
:101FC0009946A246AB46F0BD290038009047D5E7B8
:101FD0000121236801A89847BDE7504600F09CF80E
:101FE000E8E70221044823689847D7E7B0030020B8
:101FF000800600208C060020FC21001010B582B065
:102000006B4604000022D81D01210470FFF776FF03
:10201000200002B010BDC04670B5040000F042F8C8
:102020000122010005002000FFF768FF084B1C6833
:10203000002C06D06368002B05D09847E468002C7C
:10204000F8D1280070BDE468002CF3D1F9E7C04650
:102050008006002010B5024800F004F810BDC0460C
:10206000B406002030B5002589B004000922002103
:1020700001A80095FFF7F4FE0922002105A80495A8
:10208000FFF7EEFE4B236A466846137004A90D2243
:1020900000F03AF81521082220006944FFF7E6FE17
:1020A00009B030BD10B583070AD00300032102E058
:1020B00001330B4205D01A78002AF9D1181A10BD45
:1020C000030019680C4A0D4C8A188A4322420FD12A
:1020D0005968094A04338A188A43224208D1596848
:1020E000054A04338A188A432242F1D000E00133C2
:1020F0001A78002AFBD1E1E7FFFEFEFE8080808097
:10210000F8B5C0460000000001B40248844601BC96
:10211000604700BF5102002001B40248844601BC60
:10212000604700BF7D01002001B40248844601BC25
:10213000604700BFF902002001B40248844601BC98
:10214000604700BF2101002001B40248844601BC61
:08215000604700BFC100002040
:10215800486172647761726520616C61726D2025D7
:102168006420616C726561647920636C61696D6576
:10217800640000000A2A2A2A2050414E4943202A96
:102188002A2A0A000A0000004861726420617373F9
:102198006572740052656C6561736500626F6F7477
:1021A800325F77323571303830000000312E322EF0
:1021B800300000007069636F0000000069736C6193
:1021C800000000004A756C20203720323032310080
:1021D80006005250BBFF3CB6BC210010060052500E
:1021E800E182887FA421001006005250D3F0754286
:0821F8009C2100100D0A0000FB
:10220000B4020010A80200109C020010D821001097
:0C22100090020010E4210010F0210010EA
:10221C0070B5D024002524060268EFF3108172B645
:10222C001368002BFCD0BFF35F8F04230022C3562E
:10223C00A2565E1C16D093420CD14379012B09D9BE
:10224C00013B43710368BFF35F8F00221A6081F377
:10225C00108870BD0368BFF35F8F1D6081F3108819
:10226C0020BFD9E743790271002BEBD0E8E7C046D9
:10227C00030030B50068EFF3108472B60268002AD0
:10228C00FCD0BFF35F8FD022002012061056042220
:10229C009A56551C14D082420BD0002913D0002022
:1022AC000A601B68BFF35F8F00221A6084F31088EA
:1022BC0030BD58790128F0D9013858710120F0E768
:1022CC0018710120EDE70020EBE7C0460268EFF340
:1022DC00108172B61368002BFCD0BFF35F8F43796B
:1022EC00002B0CD00133DBB24371FF2B11D00368F0
:1022FC00BFF35F8F00221A6081F310887047FF22B2
:10230C0002710268BFF35F8F136081F3108840BFC6
:10231C00F4E703710368BFF35F8F00221A6081F347
:10232C00108840BFEAE7C046084810B50378002B78
:10233C000AD180230649074A5B051C68CC5004333C
:10234C009342FAD10123037010BDC046D006002081
:10235C00100500100001001010B5024B0133984716
:10236C0010BDC04610050020054B1A6880239B0049
:10237C005340C02292001340024A13607047C0467B
:10238C000C8001400C900140034B1A68C0239B0049
:10239C009343024A136070470C8001400C9001403B
:1023AC00F8B5CE464746814680B524480E00140049
:1023BC0000F04EF80700224800F04AF805002148CA
:1023CC0000F046F88046FFF7AFFFB847A847FFF785
:1023DC00CBFF002C1BD0C02122000827022049056E
:1023EC003D008B6A1D4018420BD0002C09D0131BEA
:1023FC000D2B1ED84B461B78013C0B6601239C46CB
:10240C00E1442300002D0BD11343002BE8D1FFF73F
:10241C00BBFFC047FFF7A0FF0CBC90469946F8BD28
:10242C00002AF2D00B6E013A3370130001362343AD
:10243C00EBE7002DD4D0002AD2D0F3E749460000B8
:10244C0045580000464300007047C046000000009D
:10245C0001B40248844601BC604700BFF11B001068
:10246C00E6000000E600000010000000340300202D
:10247C0000000000D00300204006002000000000F7
:10248C0000000000500600200000000000000000CA
:10249C00100000000000000000000100000000001F
:1024AC00000000000000020000000000000000001E
:1024BC000000030000000000000000000000FF000E
:1024CC000000000000B5486801318E460047704698
:1024DC0009380149884700BDD519001000000000DB
:1024EC00503300004C3300005433000052330000D2
:1024FC004D5300004D4300005334000043340000A2
:10250C000000000000000000511E0010E11B001034
:10251C00E91C0010C11D0010ED0200105520001028
:04000005100001E9FD
:00000001FF
